:020000040800F2
:100000000028002019110008A9100008AF100008EE
:10001000B5100008BB100008C11000080000000067
:10002000000000000000000000000000C7100008F1
:10003000D310000800000000DF100008EB100008DB
:1000400061110008611100086111000861110008C8
:1000500061110008611100086111000861110008B8
:1000600061110008611100086111000861110008A8
:100070006111000861110008611100086111000898
:100080006111000861110008611100086111000888
:100090006111000861110008611100086111000878
:1000A0006111000861110008611100086111000868
:1000B000F91000086111000800000000611100083B
:1000C000611100080000000000000000611100083C
:1000D000000000006111000861110008000000002C
:1000E00061110008611100086111000800000000A2
:1000F0000000000000000000000000000000000000
:0C01000000000000000000005FF808F1A3
:10010C0010B5054C237833B9044B13B10448AFF345
:10011C0000800123237010BD7C0000200000000033
:10012C00A827000808B5034B1BB103490348AFF3DC
:10013C00008008BD0000000080000020A8270008F7
:10014C0080B483B000AF7860094A7B6852F82330E2
:10015C00012B06D1064A7B68002142F823100123AB
:10016C0000E0002318460C37BD4680BC704700BF2A
:10017C009800002080B483B000AF7860044A7B689C
:10018C00012142F8231000BF0C37BD4680BC7047DC
:10019C009800002080B582B000AF7860414A7B683F
:1001AC001B01134404331A683E497B681B010B4442
:1001BC001A603C4A7B681B01134408331A6839499E
:1001CC007B681B010B4404331A60374A7B6852F876
:1001DC0023301846354A7B6852F823309BB21946B7
:1001EC0001F0A4FA034619462E4A7B681B011344FE
:1001FC00083319602B4A7B681B0113441A68294980
:10020C007B681B010B4404331B689A4246D1254A78
:10021C007B681B01134404331A6822497B681B0159
:10022C000B4408331B689A4238D11E4A7B681B0169
:10023C0013440C331A681B497B681B010B440833AD
:10024C001B689A421AD0174A7B681B011344083367
:10025C001A6814497B681B010B440C331A60114A51
:10026C007B681B01134408331B68002B16D178687C
:10027C00FFF780FF0E4B64221A600FE00C4B1B68DB
:10028C00013B0B4A13600A4B1B68002B06D1054A35
:10029C007B681B0113440C3301221A6000BF083722
:1002AC00BD4680BD0000002044000020540000200A
:1002BC004000002080B500AF924B1B68013B042B23
:1002CC0000F2E08001A252F823F000BFED0200081A
:1002DC002703000883030008DD0300083704000827
:1002EC00884B02221A60884B1B68884A1268114698
:1002FC00184600F0BFFC854B1B68642202FB03F31D
:10030C000021184600F034FE0121642000F030FE7C
:10031C0002210A2000F02CFEBDE001220121002068
:10032C0000F0BCFC01220021012000F0D9FC784B2C
:10033C001B68012B13D1774B1B68764A1268114648
:10034C00184600F097FC734B1B68642202FB03F306
:10035C000021184600F00CFE6A4B03221A606C4B0D
:10036C005B68012B40F0908000F070FC0121642050
:10037C0000F0FEFD88E001220121002000F08EFC3F
:10038C0000220121012000F0ABFC614B1B68012B0A
:10039C0013D15E4B1B685C4A12681146184600F07C
:1003AC0069FC5A4B1B68642202FB03F300211846BC
:1003BC0000F0DEFD534B04221A60554B5B68012B99
:1003CC0064D100F043FC0121642000F0D1FD5DE01C
:1003DC0001220021012000F061FC012201210020FA
:1003EC0000F07EFC4A4B1B68012B13D1494B1B6858
:1003FC00484A12681146184600F03CFC454B1B68F5
:10040C00642202FB03F30021184600F0B1FD3D4BC2
:10041C0005221A603E4B5B68012B39D100F016FCAB
:10042C000121642000F0A4FD32E001220021012012
:10043C0000F034FC00220121012000F051FC344B6F
:10044C001B68012B13D1304B1B68304A12681146C4
:10045C00184600F00FFC2D4B1B68642202FB03F3C3
:10046C000021184600F084FD264B02221A60284B0E
:10047C005B68012B0ED100F0E9FB0121642000F038
:10048C0077FD07E000BF06E000BF04E000BF02E01C
:10049C0000BF00E000BF1E4B9B68012B14D100F085
:1004AC0095FB1D4B1B685A1C1B490A60184600F033
:1004BC0009FB194B1B68032B02DD174B00221A603A
:1004CC0002210A2000F054FD0E4B1B68022B16D1A2
:1004DC000120FFF735FE0346012B10D1012201212B
:1004EC00012000F0DBFB01220121012000F0F8FBD0
:1004FC000321642000F03CFD024B0B221A6000BF6C
:10050C0080BD00BFAC00002064000020680000200B
:10051C00F00000206C000020A800002080B400AF88
:10052C00074B1B68074A1360074B1B68074A13608D
:10053C00074B1B68074A136000BFBD4680BC704761
:10054C0064000020180100206C0000202001002015
:10055C00680000201C01002080B500AF894B1B688F
:10056C000D2B00F0B3800D2B00F301810B2B02D06F
:10057C000C2B56D0FBE0844B1B680221184600F074
:10058C0079FB824BDB68012B0BD10221804801F0F7
:10059C00FCF840217E4801F0F8F80321642000F0BB
:1005AC00E7FC0120FFF7CCFD0346012B10D1012203
:1005BC000121012000F072FB01220121012000F039
:1005CC008FFB0321642000F0D3FC6E4B0C221A60CD
:1005DC000220FFF7B5FD0346012B0CD16A4B1B68BB
:1005EC000133694A1360684B1B68622B03DD694B4E
:1005FC001B68654A13600320FFF7A2FD0346012B1D
:10060C0040F0B880604B1B68624A1360614B1A68FB
:10061C00614B1B68D31A614A13605A4B01221A6052
:10062C00A8E05F4B1B680321184600F023FB574BD7
:10063C00DB68012B0BD10421554801F0A6F82021D1
:10064C00534801F0A2F80321642000F091FC012032
:10065C00FFF776FD0346012B10D101220121012069
:10066C0000F01CFB01220121012000F039FB0321C9
:10067C00642000F07DFC434B0D221A600220FFF732
:10068C005FFD0346012B0CD1454B1B680133444ADB
:10069C001360434B1B68622B03DD3F4B1B68404AC6
:1006AC0013600320FFF74CFD0346012B64D13C4B38
:1006BC001B68394A1360394B1A68374B1B68134453
:1006CC00344A13602F4B01221A6055E0354B1B68DE
:1006DC000421184600F0CEFA2C4BDB68012B0BD111
:1006EC0008212B4801F051F81021294801F04DF850
:1006FC000321642000F03CFC0120FFF721FD0346A0
:10070C00012B0CD101220121012000F0C7FA01229A
:10071C000121012000F0E4FA1A4B01221A60022098
:10072C00FFF70EFD0346012B0CD11E4B1B6801334A
:10073C001C4A13601B4B1B68622B03DD174B1B6899
:10074C00184A13600320FFF7FBFC0346012B15D15D
:10075C00144B1B68114A1360104B1A680E4B1B6824
:10076C0013440C4A1360074B01221A6006E0FFF792
:10077C00D5FE04E000BF02E000BF00E000BF00BFF8
:10078C0080BD00BFAC00002018010020F00000204C
:10079C0000080140640000206C000020680000206C
:1007AC00200100201C01002080B582B000AF7860D1
:1007BC007B68092B00F2808101A252F823F000BF64
:1007CC00F50700083D08000885080008CD0800085A
:1007DC00150900085D090008A5090008ED090008C5
:1007EC00350A00087D0A000800220121B44800F0F7
:1007FC00B4FF00220221B24800F0AFFF0022042116
:10080C00AF4800F0AAFF00220821AD4800F0A5FF78
:10081C0000221021AA4800F0A0FF00222021A848A5
:10082C0000F09BFF01224021A54800F096FF43E118
:10083C0001220121A24800F090FF00220221A048D1
:10084C0000F08BFF002204219D4800F086FF01225E
:10085C0008219B4800F081FF01221021984800F0EC
:10086C007CFF01222021964800F077FF01224021D5
:10087C00934800F072FF1FE100220121904800F024
:10088C006CFF002202218E4800F067FF0122042138
:10089C008B4800F062FF00220821894800F05DFFC0
:1008AC0000221021864800F058FF012220218448A4
:1008BC0000F053FF00224021814800F04EFFFBE086
:1008CC00002201217E4800F048FF002202217C48D2
:1008DC0000F043FF00220421794800F03EFF002283
:1008EC000821774800F039FF01221021744800F0EC
:1008FC0034FF01222021724800F02FFF00224021FA
:10090C006F4800F02AFFD7E0012201216C4800F06B
:10091C0024FF002202216A4800F01FFF002204215C
:10092C00674800F01AFF01220821654800F015FF06
:10093C0001221021624800F010FF002220216048A3
:10094C0000F00BFF002240215D4800F006FFB3E0F1
:10095C00002201215A4800F000FF012202215848D0
:10096C0000F0FBFE00220421554800F0F6FE0022A8
:10097C000821534800F0F1FE01221021504800F0EC
:10098C00ECFE002220214E4800F0E7FE0022402120
:10099C004B4800F0E2FE8FE000220121484800F0B5
:1009AC00DCFE01220221464800F0D7FE0022042181
:1009BC00434800F0D2FE00220821414800F0CDFE51
:1009CC00002210213E4800F0C8FE002220213C48A5
:1009DC0000F0C3FE00224021394800F0BEFE6BE05F
:1009EC0000220121364800F0B8FE002202213448D2
:1009FC0000F0B3FE00220421314800F0AEFE0122CB
:100A0C0008212F4800F0A9FE012210212C4800F0EB
:100A1C00A4FE012220212A4800F09FFE0122402141
:100A2C00274800F09AFE47E000220121244800F0FC
:100A3C0094FE00220221224800F08FFE00220421A5
:100A4C001F4800F08AFE002208211D4800F085FE98
:100A5C00002210211A4800F080FE002220211848A4
:100A6C0000F07BFE00224021154800F076FE23E0CA
:100A7C0000220121124800F070FE002202211048D1
:100A8C0000F06BFE002204210D4800F066FE0022EF
:100A9C0008210B4800F061FE01221021084800F0EB
:100AAC005CFE00222021064800F057FE0022402167
:100ABC00034800F052FE00BF00BF0837BD4680BDA2
:100ACC00000C014080B582B000AF78603D4A7B6875
:100ADC0052F823301846FFF767FE7B68032B6BD860
:100AEC0001A252F823F000BF050B0008350B0008DB
:100AFC00650B0008950B000800228021324800F09D
:100B0C002CFE01224FF480712F4800F026FE0122AA
:100B1C004FF400712C4800F020FE01224FF480614C
:100B2C00294800F01AFE48E001228021264800F0F6
:100B3C0014FE00224FF48071234800F00EFE0122B7
:100B4C004FF40071204800F008FE01224FF4806140
:100B5C001D4800F002FE30E0012280211A4800F00E
:100B6C00FCFD01224FF48071174800F0F6FD0022C5
:100B7C004FF40071144800F0F0FD01224FF4806135
:100B8C00114800F0EAFD18E0012280210E4800F027
:100B9C00E4FD01224FF480710B4800F0DEFD0122D0
:100BAC004FF40071084800F0D8FD00224FF480612A
:100BBC00054800F0D2FD00E000BF00BF0837BD467D
:100BCC0080BD00BFB80000200008014080B400AF19
:100BDC001A4B1B681A4A82FB03129210DB17D31AAA
:100BEC00184A1360154B1968154B83FB01239A1097
:100BFC00CB17D21A13469B0013445B00CA1A114B35
:100C0C005A60114B1B680E4A82FB03129210DB17C1
:100C1C00D31A0C4A93600C4B1968094B83FB0123C4
:100C2C009A10CB17D21A13469B0013445B00CA1AB6
:100C3C00044BDA6000BFBD4680BC7047B00000209A
:100C4C0067666666B8000020B400002080B400AF70
:100C5C00064B1B68013B054A1360054B1B68013BA7
:100C6C00034A136000BFBD4680BC7047B000002033
:100C7C00B400002080B483B000AF78603960054ABE
:100C8C007B681360044A3B68136000BF0C37BD4699
:100C9C0080BC7047B0000020B400002080B584B048
:100CAC0000AFF860B9607A60FB68DBB21A460221CB
:100CBC000A4800F052FD7B68DBB21A460421074853
:100CCC0000F04BFDBB68DBB21A460821034800F06C
:100CDC0044FD00BF1037BD4680BD00BF0008014079
:100CEC0080B584B000AFF860B9607A60FB68DBB2A5
:100CFC001A4640210A4800F030FD7B68DBB21A46E8
:100D0C002021074800F029FDBB68DBB21A461021F0
:100D1C00034800F022FD00BF1037BD4680BD00BF68
:100D2C000008014080B500AF00F016FA00F014F88E
:100D3C0000F09AF800F04CF8054801F06BF9054BFF
:100D4C0001221A60FFF7B6FAFFF706FCFAE700BFBC
:100D5C0024010020AC00002080B590B000AF07F15A
:100D6C00180328220021184601F010FD3B1D00221B
:100D7C001A605A609A60DA601A610223BB6101231F
:100D8C00BB621023FB6200237B6307F11803184638
:100D9C0000F014FD0346002B01D000F0E4F80F2303
:100DAC007B600023BB600023FB6000233B610023BE
:100DBC007B613B1D0021184600F080FF0346002B91
:100DCC0001D000F0D0F800BF4037BD4680BD000018
:100DDC0080B586B000AF07F1080300221A605A6094
:100DEC009A60DA603B4600221A605A601D4B4FF045
:100DFC0080421A601B4B41F63F725A60194B00221D
:100E0C009A60184B0922DA60164B00221A61154BB6
:100E1C0000229A61134801F0ADF80346002B01D073
:100E2C0000F0A1F84FF48053BB6007F1080319469A
:100E3C000C4801F043FA0346002B01D000F093F864
:100E4C0000233B6000237B603B461946054801F0BC
:100E5C000FFC0346002B01D000F085F800BF1837BB
:100E6C00BD4680BD2401002080B586B000AF07F1DF
:100E7C00080300221A605A609A60DA60284B9B695A
:100E8C00274A43F004039361254B9B6903F0040349
:100E9C007B607B68224B9B69214A43F0080393617A
:100EAC001F4B9B6903F008033B603B68002240F238
:100EBC00FE711C4800F051FC00227F211A4800F002
:100ECC004CFC40F2FE73BB600123FB6000233B61D2
:100EDC0002237B6107F108031946124800F0ACFAB3
:100EEC007F23BB600123FB6000233B6102237B61FA
:100EFC0007F1080319460C4800F09EFA4FF46043C2
:100F0C00BB600023FB6001233B6107F1080319461A
:100F1C00044800F091FA00BF1837BD4680BD00BFF1
:100F2C000010024000080140000C014080B582B066
:100F3C0000AF7860002000F033F8012000F030F8AA
:100F4C00022000F02DF8032000F02AF80120FFF712
:100F5C0021F90220FFF71EF90320FFF71BF900BF50
:100F6C000837BD4680BD80B400AF72B600BFFEE747
:100F7C0080B483B000AF7860396007493B687A6809
:100F8C0041F82320054A3B68002142F8231000BF9A
:100F9C000C37BD4680BC7047C8000020F000002014
:100FAC0080B483B000AF78600F4A7B6852F823306E
:100FBC00002B13DD0C4A7B6852F823305A1E0A4969
:100FCC007B6841F82320084A7B6852F82330002BB9
:100FDC0004DC064A7B68012142F8231000BF0C3761
:100FEC00BD4680BC704700BFC8000020F000002048
:100FFC0080B485B000AF154B9B69144A43F00103D4
:10100C009361124B9B6903F00103BB60BB680F4BF0
:10101C00DB690E4A43F08053D3610C4BDB6903F060
:10102C0080537B607B680A4B5B68FB60FB6823F03A
:10103C00E063FB60FB6843F08063FB60044AFB6881
:10104C00536000BF1437BD4680BC7047001002408F
:10105C000000014080B584B000AF78607B681B68ED
:10106C00B3F1804F13D10C4BDB690B4A43F00103F6
:10107C00D361094BDB6903F00103FB60FB680022C1
:10108C0000211C2000F0A1F91C2000F0BAF900BFCF
:10109C001037BD4680BD00BF0010024080B400AFC9
:1010AC00FEE780B400AFFEE780B400AFFEE780B48B
:1010BC0000AFFEE780B400AFFEE780B400AF00BF26
:1010CC00BD4680BC704780B400AF00BFBD4680BC3D
:1010DC00704780B400AF00BFBD4680BC704780B580
:1010EC0000AF00F07FF800BF80BD000080B500AFFE
:1010FC00024800F0DBFF00BF80BD00BF24010020D0
:10110C0080B400AF00BFBD4680BC7047FFF7F8FF4E
:10111C000B480C490C4A002302E0D458C450043349
:10112C00C4188C42F9D3094A094C002301E013601E
:10113C000432A242FBD301F005FBFFF7F3FD70472D
:10114C00000000207C000020EC2700087C00002020
:10115C0070010020FEE7000080B500AF084B1B6853
:10116C00074A43F010031360032000F023F90F200B
:10117C0000F008F8FFF73CFF0023184680BD00BFC5
:10118C000020024080B582B000AF7860124B1A6824
:10119C00124B1B7819464FF47A73B3FBF1F3B2FB85
:1011AC00F3F3184600F03BF90346002B01D0012362
:1011BC000EE07B680F2B0AD8002279684FF0FF30C5
:1011CC0000F003F9064A7B681360002300E001235A
:1011DC0018460837BD4680BD7000002078000020FE
:1011EC007400002080B400AF054B1B781A46054BE9
:1011FC001B681344034A136000BFBD4680BC704794
:10120C00780000206C01002080B400AF024B1B68FA
:10121C001846BD4680BC70476C01002080B485B078
:10122C0000AF78607B6803F00703FB600C4BDB6856
:10123C00BB60BA684FF6FF031340BB60FB681A0231
:10124C00BB68134343F0BF6343F40033BB60044AF1
:10125C00BB68D36000BF1437BD4680BC704700BF6D
:10126C0000ED00E080B400AF044BDB681B0A03F018
:10127C0007031846BD4680BC704700BF00ED00E078
:10128C0080B483B000AF0346FB7197F90730002B95
:10129C000BDBFB7903F01F02064997F907305B095A
:1012AC00012000FA02F241F8232000BF0C37BD46A2
:1012BC0080BC704700E100E080B483B000AF03460F
:1012CC003960FB7197F90730002B0ADB3B68DAB207
:1012DC000C4997F907301201D2B20B4483F8002362
:1012EC000AE03B68DAB20849FB7903F00F03043BD0
:1012FC001201D2B20B441A7600BF0C37BD4680BC2B
:10130C00704700BF00E100E000ED00E080B489B060
:10131C0000AFF860B9607A60FB6803F00703FB610B
:10132C00FB69C3F10703042B28BF0423BB61FB69D2
:10133C000433062B02D9FB69033B00E000237B61DD
:10134C004FF0FF32BB6902FA03F3DA43BB681A4071
:10135C007B699A404FF0FF317B6901FA03F3D94363
:10136C007B680B40134318462437BD4680BC70473E
:10137C0080B582B000AF78607B68013BB3F1807FB1
:10138C0001D301230FE00A4A7B68013B53600F2114
:10139C004FF0FF30FFF790FF054B00229A60044B93
:1013AC0007221A60002318460837BD4680BD00BFCF
:1013BC0010E000E080B582B000AF78607868FFF78D
:1013CC002DFF00BF0837BD4680BD80B586B000AF8D
:1013DC000346B9607A60FB7300237B61FFF742FF21
:1013EC0078617A68B9687869FFF790FF024697F9D7
:1013FC000F3011461846FFF75FFF00BF1837BD4688
:10140C0080BD80B582B000AF0346FB7197F9073001
:10141C001846FFF735FF00BF0837BD4680BD80B5C5
:10142C0082B000AF78607868FFF7A2FF03461846D9
:10143C000837BD4680BD000080B48BB000AF78602B
:10144C00396000237B6200233B6248E101227B6A06
:10145C0002FA03F3FB613B681B68FA691340BB613A
:10146C00BA69FB699A4240F037813B685B68A34AD2
:10147C0093425ED0A14A934275D8A14A934258D068
:10148C009F4A93426FD89F4A934252D09D4A9342AF
:10149C0069D89D4A93424CD09B4A934263D89B4A4D
:1014AC00934246D0994A93425DD8122B2AD8122BDC
:1014BC0059D801A252F823F03F150008191500085D
:1014CC002B1500086D15000873150008731500081E
:1014DC0073150008731500087315000873150008C0
:1014EC0073150008731500087315000873150008B0
:1014FC0073150008731500087315000821150008F2
:10150C0035150008824A934213D02CE03B68DB6807
:10151C003B6229E03B68DB6804333B6224E03B68B8
:10152C00DB6808333B621FE03B68DB680C333B62D3
:10153C001AE03B689B68002B02D104233B6213E04A
:10154C003B689B68012B05D108233B627B68FA69D9
:10155C001A6109E008233B627B68FA695A6103E06F
:10156C0000233B6200E000BFBB69FF2B01D87B6806
:10157C0001E07B6804337B61BB69FF2B02D87B6A7B
:10158C009B0002E07B6A083B9B003B617B691A680D
:10159C000F213B6901FA03F3DB431A40396A3B69BB
:1015AC0001FA03F31A437B691A603B685B6803F02A
:1015BC008053002B00F09080564B9B69554A43F0AA
:1015CC0001039361534B9B6903F00103BB60BB6840
:1015DC00514A7B6A9B08023352F82330FB607B6ACA
:1015EC0003F003039B000F2202FA03F3DB43FA68B8
:1015FC001340FB607B68494A93420DD07B68484A94
:10160C00934207D07B68474A934201D1022304E0FE
:10161C00032302E0012300E000237A6A02F00302B4
:10162C0092009340FA681343FB603B497B6A9B082A
:10163C000233FA6841F823203B685B6803F480139B
:10164C00002B06D0384B9A683749BB6913438B6023
:10165C0006E0354B9A68BB69DB43334913408B601A
:10166C003B685B6803F40013002B06D02E4BDA6842
:10167C002D49BB691343CB6006E02B4BDA68BB6981
:10168C00DB4329491340CB603B685B6803F40033B0
:10169C00002B06D0244B5A682349BB6913434B607B
:1016AC0006E0214B5A68BB69DB431F4913404B6072
:1016BC003B685B6803F48033002B06D01A4B1A6826
:1016CC001949BB6913430B6006E0174B1A68BB69D9
:1016DC00DB43154913400B607B6A01337B623B682B
:1016EC001A687B6A22FA03F3002B7FF4AFAE00BFBB
:1016FC0000BF2C37BD4680BC704700BF00003210C5
:10170C000000311000002210000021100000121007
:10171C0000001110001002400000014000080140C0
:10172C00000C0140001001400004014080B485B061
:10173C0000AF78600B467B807B689A687B8813408F
:10174C00002B02D00123FB7301E00023FB73FB7B16
:10175C0018461437BD4680BC704780B483B000AFC8
:10176C0078600B467B8013467B707B78002B03D014
:10177C007A887B681A6103E07B881A047B681A619B
:10178C0000BF0C37BD4680BC704780B485B000AF3D
:10179C0078600B467B807B68DB68FB607A88FB6833
:1017AC0013401A04FB68D9437B880B401A437B68AF
:1017BC001A6100BF1437BD4680BC704780B586B037
:1017CC0000AF78607B68002B01D101236CE27B6851
:1017DC001B6803F00103002B00F08780924B5B68C1
:1017EC0003F00C03042B0CD08F4B5B6803F00C0341
:1017FC00082B12D18C4B5B6803F48033B3F5803F1C
:10180C000BD1894B1B6803F40033002B6CD07B6825
:10181C005B68002B68D1012346E27B685B68B3F5FB
:10182C00803F06D1804B1B687F4A43F480331360A2
:10183C002EE07B685B68002B0CD17B4B1B687A4AD3
:10184C0023F480331360784B1B68774A23F480238E
:10185C0013601DE07B685B68B3F5A02F0CD1724B55
:10186C001B68714A43F4802313606F4B1B686E4AEC
:10187C0043F4803313600BE06B4B1B686A4A23F410
:10188C0080331360684B1B68674A23F48023136012
:10189C007B685B68002B13D0FFF7B6FC386108E05F
:1018AC00FFF7B2FC02463B69D31A642B01D9032320
:1018BC00FAE15D4B1B6803F40033002BF0D014E00D
:1018CC00FFF7A2FC386108E0FFF79EFC02463B697B
:1018DC00D31A642B01D90323E6E1534B1B6803F4A1
:1018EC000033002BF0D100E000BF7B681B6803F0D5
:1018FC000203002B63D04C4B5B6803F00C03002BF2
:10190C000BD0494B5B6803F00C03082B1CD1464BE6
:10191C005B6803F48033002B16D1434B1B6803F038
:10192C000203002B05D07B681B69012B01D001231E
:10193C00BAE13D4B1B6823F0F8027B685B69DB0066
:10194C00394913430B603AE07B681B69002B20D0AC
:10195C00364B01221A60FFF757FC386108E0FFF79D
:10196C0053FC02463B69D31A022B01D903239BE19A
:10197C002D4B1B6803F00203002BF0D02A4B1B6885
:10198C0023F0F8027B685B69DB00274913430B608B
:10199C0015E0264B00221A60FFF736FC386108E090
:1019AC00FFF732FC02463B69D31A022B01D9032301
:1019BC007AE11D4B1B6803F00203002BF0D17B680E
:1019CC001B6803F00803002B3AD07B689B69002B43
:1019DC0019D0174B01221A60FFF716FC386108E08A
:1019EC00FFF712FC02463B69D31A022B01D90323E1
:1019FC005AE10D4B5B6A03F00203002BF0D001207F
:101A0C0000F09AFA1CE00A4B00221A60FFF7FCFB6C
:101A1C0038610FE0FFF7F8FB02463B69D31A022B43
:101A2C0008D9032340E100BF0010024000004242ED
:101A3C00800442429E4B5B6A03F00203002BE9D107
:101A4C007B681B6803F00403002B00F0A6800023C6
:101A5C00FB75974BDB6903F08053002B0DD1944B36
:101A6C00DB69934A43F08053D361914BDB6903F0FC
:101A7C008053BB60BB680123FB758E4B1B6803F462
:101A8C008073002B18D18B4B1B688A4A43F48073EC
:101A9C001360FFF7B9FB386108E0FFF7B5FB0246AE
:101AAC003B69D31A642B01D90323FDE0814B1B68DE
:101ABC0003F48073002BF0D07B68DB68012B06D11C
:101ACC007B4B1B6A7A4A43F0010313622DE07B685F
:101ADC00DB68002B0CD1764B1B6A754A23F0010393
:101AEC001362734B1B6A724A23F0040313621CE0EB
:101AFC007B68DB68052B0CD16D4B1B6A6C4A43F081
:101B0C00040313626A4B1B6A694A43F001031362B4
:101B1C000BE0674B1B6A664A23F001031362644BAC
:101B2C001B6A634A23F0040313627B68DB68002B97
:101B3C0015D0FFF769FB38610AE0FFF765FB024639
:101B4C003B69D31A41F28832934201D90323ABE0AB
:101B5C00574B1B6A03F00203002BEED014E0FFF787
:101B6C0053FB38610AE0FFF74FFB02463B69D31A7F
:101B7C0041F28832934201D9032395E04C4B1B6A06
:101B8C0003F00203002BEED1FB7D012B05D1484B5A
:101B9C00DB69474A23F08053D3617B68DB69002BF8
:101BAC0000F08180424B5B6803F00C03082B61D082
:101BBC007B68DB69022B46D13F4B00221A60FFF792
:101BCC0023FB386108E0FFF71FFB02463B69D31A81
:101BDC00022B01D9032367E0354B1B6803F000731C
:101BEC00002BF0D17B681B6AB3F5803F08D1304BDA
:101BFC005B6823F400327B689B682D4913434B6070
:101C0C002B4B5B6823F474127B68196A7B685B6AE4
:101C1C000B43274913434B60274B01221A60FFF7F4
:101C2C00F3FA386108E0FFF7EFFA02463B69D31A82
:101C3C00022B01D9032337E01D4B1B6803F0007303
:101C4C00002BF0D02FE01C4B00221A60FFF7DCFABF
:101C5C00386108E0FFF7D8FA02463B69D31A022B29
:101C6C0001D9032320E0124B1B6803F00073002BF7
:101C7C00F0D118E07B68DB69012B01D1012313E063
:101C8C000B4B5B68FB60FB6803F480327B681B6A60
:101C9C009A4206D1FB6803F470127B685B6A9A4225
:101CAC0001D0012300E0002318461837BD4680BD43
:101CBC0000100240007000406000424280B584B0C9
:101CCC0000AF786039607B68002B01D10123D0E034
:101CDC006A4B1B6803F007033A689A4210D9674BAA
:101CEC001B6823F0070265493B6813430B60634B89
:101CFC001B6803F007033A689A4201D00123B8E04D
:101D0C007B681B6803F00203002B20D07B681B68E8
:101D1C0003F00403002B05D0594B5B68584A43F47D
:101D2C00E06353607B681B6803F00803002B05D04D
:101D3C00534B5B68524A43F460535360504B5B689F
:101D4C0023F0F0027B689B684D4913434B607B6822
:101D5C001B6803F00103002B40D07B685B68012BF0
:101D6C0007D1474B1B6803F40033002B15D101231B
:101D7C007FE07B685B68022B07D1414B1B6803F04B
:101D8C000073002B09D1012373E03D4B1B6803F05A
:101D9C000203002B01D101236BE0394B5B6823F06C
:101DAC0003027B685B68364913434B60FFF72CFAE0
:101DBC00F8600AE0FFF728FA0246FB68D31A41F2F2
:101DCC008832934201D9032353E02D4B5B6803F017
:101DDC000C027B685B689B009A42EBD1274B1B681B
:101DEC0003F007033A689A4210D2244B1B6823F085
:101DFC00070222493B6813430B60204B1B6803F01E
:101E0C0007033A689A4201D0012332E07B681B68D1
:101E1C0003F00403002B08D0194B5B6823F4E06239
:101E2C007B68DB68164913434B607B681B6803F0C7
:101E3C000803002B09D0124B5B6823F460527B68BB
:101E4C001B69DB000E4913434B6000F021F802467E
:101E5C000B4B5B681B0903F00F030A49CB5C22FA9E
:101E6C0003F3094A1360094B1B681846FFF78AF9FC
:101E7C00002318461037BD4680BD00BF002002402D
:101E8C0000100240C02700087000002074000020E1
:101E9C0080B487B000AF0023FB600023BB6000233D
:101EAC007B6100237B6000233B611E4B5B68FB6006
:101EBC00FB6803F00C03042B02D0082B03D027E0A3
:101ECC00194B3B6127E0FB689B0C03F00F03174A8F
:101EDC00D35C7B60FB6803F48033002B10D0114B78
:101EEC005B685B0C03F00103114AD35CBB607B683D
:101EFC000D4A02FB03F2BB68B2FBF3F37B6104E017
:101F0C007B680C4A02FB03F37B617B693B6102E05B
:101F1C00054B3B6100BF3B6918461C37BD4680BC76
:101F2C00704700BF0010024000127A00D027000852
:101F3C00E027000800093D0080B485B000AF786050
:101F4C000A4B1B680A4AA2FB03235B0A7A6802FB52
:101F5C0003F3FB6000BFFB685A1EFA60002BF9D13B
:101F6C0000BF00BF1437BD4680BC70477000002016
:101F7C00D34D621080B582B000AF78607B68002BC7
:101F8C0001D1012341E07B6893F83D30DBB2002B9B
:101F9C0006D17B68002283F83C207868FFF75AF85A
:101FAC007B68022283F83D207B681A687B680433C7
:101FBC001946104600F06EFA7B68012283F8462021
:101FCC007B68012283F83E207B68012283F83F2046
:101FDC007B68012283F840207B68012283F8412032
:101FEC007B68012283F842207B68012283F843201E
:101FFC007B68012283F844207B68012283F845200A
:10200C007B68012283F83D20002318460837BD4623
:10201C0080BD000080B485B000AF78607B6893F819
:10202C003D30DBB2012B01D0012335E07B6802226D
:10203C0083F83D207B681B68DA687B681B6842F07C
:10204C000102DA607B681B68164A934209D07B68F0
:10205C001B68B3F1804F04D07B681B68124A934213
:10206C0011D17B681B689B6803F00703FB60FB685E
:10207C00062B10D07B681B681A687B681B6842F0C3
:10208C0001021A6007E07B681B681A687B681B6892
:10209C0042F001021A60002318461437BD4680BC7A
:1020AC00704700BF002C01400004004080B582B096
:1020BC0000AF78607B681B681B6903F00203022B7E
:1020CC0022D17B681B68DB6803F00203022B1BD157
:1020DC007B681B686FF002021A617B6801221A7719
:1020EC007B681B689B6903F00303002B03D07868A3
:1020FC0000F0B4F905E0786800F0A7F9786800F012
:10210C00B6F97B6800221A777B681B681B6903F0A1
:10211C000403042B22D17B681B68DB6803F00403E7
:10212C00042B1BD17B681B686FF004021A617B685F
:10213C0002221A777B681B689B6903F44073002B9F
:10214C0003D0786800F08AF905E0786800F07DF932
:10215C00786800F08CF97B6800221A777B681B6822
:10216C001B6903F00803082B22D17B681B68DB6812
:10217C0003F00803082B1BD17B681B686FF0080267
:10218C001A617B6804221A777B681B68DB6903F091
:10219C000303002B03D0786800F060F905E0786841
:1021AC0000F053F9786800F062F97B6800221A7726
:1021BC007B681B681B6903F01003102B22D17B6812
:1021CC001B68DB6803F01003102B1BD17B681B68AA
:1021DC006FF010021A617B6808221A777B681B6803
:1021EC00DB6903F44073002B03D0786800F036F9F8
:1021FC0005E0786800F029F9786800F038F97B6818
:10220C0000221A777B681B681B6903F00103012B02
:10221C000ED17B681B68DB6803F00103012B07D12F
:10222C007B681B686FF001021A617868FEF77EFE0E
:10223C007B681B681B6903F08003802B0ED17B68C5
:10224C001B68DB6803F08003802B07D17B681B685D
:10225C006FF080021A61786800F06BFA7B681B687B
:10226C001B6903F04003402B0ED17B681B68DB68B5
:10227C0003F04003402B07D17B681B686FF04002D2
:10228C001A61786800F0FCF87B681B681B6903F026
:10229C002003202B0ED17B681B68DB6803F0200326
:1022AC00202B07D17B681B686FF020021A617868BD
:1022BC0000F036FA00BF0837BD4680BD80B584B04B
:1022CC0000AF786039600023FB737B6893F83C3077
:1022DC00012B01D10223B4E07B68012283F83C205E
:1022EC007B68022283F83D207B681B689B68BB607F
:1022FC00BB6823F07703BB60BB6823F47F43BB60F0
:10230C007B681B68BA689A603B681B68B3F5005F12
:10231C003ED0B3F5005F00F28780B3F5805F00F02C
:10232C008680B3F5805F7FD8702B1AD0702B7BD84A
:10233C00602B50D0602B77D8502B3CD0502B73D8BF
:10234C00402B58D0402B6FD8302B64D0302B6BD80F
:10235C00202B60D0202B67D8002B5CD0102B5AD0B0
:10236C0062E07B6818683B6899683B685A683B6810
:10237C00DB6800F05EF97B681B689B68BB60BB6820
:10238C0043F07703BB607B681B68BA689A604FE0C8
:10239C007B6818683B6899683B685A683B68DB68DF
:1023AC0000F047F97B681B689A687B681B6842F4ED
:1023BC0080429A603CE07B6818683B6859683B68CF
:1023CC00DB681A4600F0BEF87B681B685021184683
:1023DC0000F015F92CE07B6818683B6859683B687D
:1023EC00DB681A4600F0DCF87B681B686021184635
:1023FC0000F005F91CE07B6818683B6859683B687D
:10240C00DB681A4600F09EF87B681B684021184672
:10241C0000F0F5F80CE07B681A683B681B681946FD
:10242C00104600F0ECF803E00123FB7300E000BF62
:10243C007B68012283F83D207B68002283F83C20D6
:10244C00FB7B18461037BD4680BD80B483B000AF0F
:10245C00786000BF0C37BD4680BC704780B483B039
:10246C0000AF786000BF0C37BD4680BC704780B4AD
:10247C0083B000AF786000BF0C37BD4680BC70479E
:10248C0080B483B000AF786000BF0C37BD4680BC11
:10249C007047000080B485B000AF786039607B680D
:1024AC001B68FB607B68254A934207D07B68B3F1BD
:1024BC00804F03D07B68224A934208D1FB6823F0FB
:1024CC007003FB603B685B68FA681343FB607B68D6
:1024DC001A4A934207D07B68B3F1804F03D07B68D4
:1024EC00174A934208D1FB6823F44073FB603B68A6
:1024FC00DB68FA681343FB60FB6823F080023B68DF
:10250C005B691343FB607B68FA681A603B689A68E6
:10251C007B68DA623B681A687B689A627B68074A58
:10252C00934203D13B681A697B681A637B6801226A
:10253C005A6100BF1437BD4680BC7047002C014067
:10254C000004004080B487B000AFF860B9607A60D6
:10255C00FB681B6A7B61FB681B6A23F00102FB684A
:10256C001A62FB689B693B613B6923F0F0033B619A
:10257C007B681B013A6913433B617B6923F00A03B7
:10258C007B617A69BB6813437B61FB683A699A612A
:10259C00FB687A691A6200BF1C37BD4680BC704765
:1025AC0080B487B000AFF860B9607A60FB681B6AD2
:1025BC007B61FB681B6A23F01002FB681A62FB68E4
:1025CC009B693B613B6923F470433B617B681B0354
:1025DC003A6913433B617B6923F0A0037B61BB68C1
:1025EC001B017A6913437B61FB683A699A61FB684A
:1025FC007A691A6200BF1C37BD4680BC704780B434
:10260C0085B000AF786039607B689B68FB60FB68C5
:10261C0023F07003FB603A68FB68134343F0070335
:10262C00FB607B68FA689A6000BF1437BD4680BCBB
:10263C00704780B487B000AFF860B9607A603B60D7
:10264C00FB689B687B617B6923F47F437B613B6800
:10265C001A027B681A43BB6813437A6913437B6184
:10266C00FB687A699A6000BF1C37BD4680BC704716
:10267C0080B485B000AF786039607B6893F83C30EB
:10268C00012B01D1022341E07B68012283F83C201D
:10269C007B68022283F83D207B681B685B68FB60CB
:1026AC007B681B689B68BB60FB6823F07003FB6056
:1026BC003B681B68FA681343FB607B681B68FA680D
:1026CC005A607B681B68144A934209D07B681B686C
:1026DC00B3F1804F04D07B681B68104A93420CD135
:1026EC00BB6823F08003BB603B685B68BA6813432C
:1026FC00BB607B681B68BA689A607B68012283F8B0
:10270C003D207B68002283F83C20002318461437B8
:10271C00BD4680BC704700BF002C01400004004047
:10272C0080B483B000AF786000BF0C37BD4680BC6E
:10273C00704780B483B000AF786000BF0C37BD46E3
:10274C0080BC704770B500260C4D0D4C641BA4105A
:10275C00A64209D100F022F800260A4D0A4C641B4F
:10276C00A410A64205D170BD55F8043B984701361C
:10277C00EEE755F8043B98470136F2E7E4270008EA
:10278C00E4270008E4270008E82700080346024471
:10279C00934200D1704703F8011BF9E7F8B500BF6D
:1027AC00F8BC08BC9E467047F8B500BFF8BC08BC26
:0427BC009E4670477E
:1027C00000000000000000000102030406070809E1
:1027D00002030405060708090A0B0C0D0E0F101062
:0427E00001020000F2
:0427E40031010008B7
:0427E8000D010008D7
:1027EC0000000000000000000000000000000000DD
:1027FC0001000000010000000100000001000000C9
:10280C0001000000010000000100000001000000B8
:10281C0001000000010000000100000001000000A8
:10282C0064000000000000000008014000080140A6
:10283C0000080140000000000020000000400000E3
:10284C0000800000050000000300000002000000F2
:0C285C000024F400100000000100000047
:0400000508001119C5
:00000001FF
